{
  "_format": "hh-sol-artifact-1",
  "contractName": "MyTokenV2",
  "sourceName": "contracts/MyTokenV2.sol",
  "abi": [
    {
      "inputs": [],
      "stateMutability": "nonpayable",
      "type": "constructor"
    },
    {
      "anonymous": false,
      "inputs": [
        {
          "indexed": false,
          "internalType": "address",
          "name": "previousAdmin",
          "type": "address"
        },
        {
          "indexed": false,
          "internalType": "address",
          "name": "newAdmin",
          "type": "address"
        }
      ],
      "name": "AdminChanged",
      "type": "event"
    },
    {
      "anonymous": false,
      "inputs": [
        {
          "indexed": true,
          "internalType": "address",
          "name": "owner",
          "type": "address"
        },
        {
          "indexed": true,
          "internalType": "address",
          "name": "spender",
          "type": "address"
        },
        {
          "indexed": false,
          "internalType": "uint256",
          "name": "value",
          "type": "uint256"
        }
      ],
      "name": "Approval",
      "type": "event"
    },
    {
      "anonymous": false,
      "inputs": [
        {
          "indexed": true,
          "internalType": "address",
          "name": "beacon",
          "type": "address"
        }
      ],
      "name": "BeaconUpgraded",
      "type": "event"
    },
    {
      "anonymous": false,
      "inputs": [
        {
          "indexed": true,
          "internalType": "bytes32",
          "name": "role",
          "type": "bytes32"
        },
        {
          "indexed": true,
          "internalType": "bytes32",
          "name": "previousAdminRole",
          "type": "bytes32"
        },
        {
          "indexed": true,
          "internalType": "bytes32",
          "name": "newAdminRole",
          "type": "bytes32"
        }
      ],
      "name": "RoleAdminChanged",
      "type": "event"
    },
    {
      "anonymous": false,
      "inputs": [
        {
          "indexed": true,
          "internalType": "bytes32",
          "name": "role",
          "type": "bytes32"
        },
        {
          "indexed": true,
          "internalType": "address",
          "name": "account",
          "type": "address"
        },
        {
          "indexed": true,
          "internalType": "address",
          "name": "sender",
          "type": "address"
        }
      ],
      "name": "RoleGranted",
      "type": "event"
    },
    {
      "anonymous": false,
      "inputs": [
        {
          "indexed": true,
          "internalType": "bytes32",
          "name": "role",
          "type": "bytes32"
        },
        {
          "indexed": true,
          "internalType": "address",
          "name": "account",
          "type": "address"
        },
        {
          "indexed": true,
          "internalType": "address",
          "name": "sender",
          "type": "address"
        }
      ],
      "name": "RoleRevoked",
      "type": "event"
    },
    {
      "anonymous": false,
      "inputs": [
        {
          "indexed": true,
          "internalType": "address",
          "name": "from",
          "type": "address"
        },
        {
          "indexed": true,
          "internalType": "address",
          "name": "to",
          "type": "address"
        },
        {
          "indexed": false,
          "internalType": "uint256",
          "name": "value",
          "type": "uint256"
        }
      ],
      "name": "Transfer",
      "type": "event"
    },
    {
      "anonymous": false,
      "inputs": [
        {
          "indexed": true,
          "internalType": "address",
          "name": "implementation",
          "type": "address"
        }
      ],
      "name": "Upgraded",
      "type": "event"
    },
    {
      "inputs": [],
      "name": "DEFAULT_ADMIN_ROLE",
      "outputs": [
        {
          "internalType": "bytes32",
          "name": "",
          "type": "bytes32"
        }
      ],
      "stateMutability": "view",
      "type": "function"
    },
    {
      "inputs": [],
      "name": "MINTER_ROLE",
      "outputs": [
        {
          "internalType": "bytes32",
          "name": "",
          "type": "bytes32"
        }
      ],
      "stateMutability": "view",
      "type": "function"
    },
    {
      "inputs": [],
      "name": "UPGRADER_ROLE",
      "outputs": [
        {
          "internalType": "bytes32",
          "name": "",
          "type": "bytes32"
        }
      ],
      "stateMutability": "view",
      "type": "function"
    },
    {
      "inputs": [
        {
          "internalType": "address",
          "name": "owner",
          "type": "address"
        },
        {
          "internalType": "address",
          "name": "spender",
          "type": "address"
        }
      ],
      "name": "allowance",
      "outputs": [
        {
          "internalType": "uint256",
          "name": "",
          "type": "uint256"
        }
      ],
      "stateMutability": "view",
      "type": "function"
    },
    {
      "inputs": [
        {
          "internalType": "address",
          "name": "spender",
          "type": "address"
        },
        {
          "internalType": "uint256",
          "name": "amount",
          "type": "uint256"
        }
      ],
      "name": "approve",
      "outputs": [
        {
          "internalType": "bool",
          "name": "",
          "type": "bool"
        }
      ],
      "stateMutability": "nonpayable",
      "type": "function"
    },
    {
      "inputs": [
        {
          "internalType": "address",
          "name": "account",
          "type": "address"
        }
      ],
      "name": "balanceOf",
      "outputs": [
        {
          "internalType": "uint256",
          "name": "",
          "type": "uint256"
        }
      ],
      "stateMutability": "view",
      "type": "function"
    },
    {
      "inputs": [],
      "name": "decimals",
      "outputs": [
        {
          "internalType": "uint8",
          "name": "",
          "type": "uint8"
        }
      ],
      "stateMutability": "view",
      "type": "function"
    },
    {
      "inputs": [
        {
          "internalType": "address",
          "name": "spender",
          "type": "address"
        },
        {
          "internalType": "uint256",
          "name": "subtractedValue",
          "type": "uint256"
        }
      ],
      "name": "decreaseAllowance",
      "outputs": [
        {
          "internalType": "bool",
          "name": "",
          "type": "bool"
        }
      ],
      "stateMutability": "nonpayable",
      "type": "function"
    },
    {
      "inputs": [
        {
          "internalType": "bytes32",
          "name": "role",
          "type": "bytes32"
        }
      ],
      "name": "getRoleAdmin",
      "outputs": [
        {
          "internalType": "bytes32",
          "name": "",
          "type": "bytes32"
        }
      ],
      "stateMutability": "view",
      "type": "function"
    },
    {
      "inputs": [
        {
          "internalType": "bytes32",
          "name": "role",
          "type": "bytes32"
        },
        {
          "internalType": "address",
          "name": "account",
          "type": "address"
        }
      ],
      "name": "grantRole",
      "outputs": [],
      "stateMutability": "nonpayable",
      "type": "function"
    },
    {
      "inputs": [
        {
          "internalType": "bytes32",
          "name": "role",
          "type": "bytes32"
        },
        {
          "internalType": "address",
          "name": "account",
          "type": "address"
        }
      ],
      "name": "hasRole",
      "outputs": [
        {
          "internalType": "bool",
          "name": "",
          "type": "bool"
        }
      ],
      "stateMutability": "view",
      "type": "function"
    },
    {
      "inputs": [
        {
          "internalType": "address",
          "name": "spender",
          "type": "address"
        },
        {
          "internalType": "uint256",
          "name": "addedValue",
          "type": "uint256"
        }
      ],
      "name": "increaseAllowance",
      "outputs": [
        {
          "internalType": "bool",
          "name": "",
          "type": "bool"
        }
      ],
      "stateMutability": "nonpayable",
      "type": "function"
    },
    {
      "inputs": [
        {
          "internalType": "address",
          "name": "proxyOwner",
          "type": "address"
        }
      ],
      "name": "initialize",
      "outputs": [],
      "stateMutability": "nonpayable",
      "type": "function"
    },
    {
      "inputs": [
        {
          "internalType": "address",
          "name": "to",
          "type": "address"
        },
        {
          "internalType": "uint256",
          "name": "amount",
          "type": "uint256"
        }
      ],
      "name": "mint",
      "outputs": [],
      "stateMutability": "nonpayable",
      "type": "function"
    },
    {
      "inputs": [],
      "name": "name",
      "outputs": [
        {
          "internalType": "string",
          "name": "",
          "type": "string"
        }
      ],
      "stateMutability": "view",
      "type": "function"
    },
    {
      "inputs": [
        {
          "internalType": "bytes32",
          "name": "role",
          "type": "bytes32"
        },
        {
          "internalType": "address",
          "name": "account",
          "type": "address"
        }
      ],
      "name": "renounceRole",
      "outputs": [],
      "stateMutability": "nonpayable",
      "type": "function"
    },
    {
      "inputs": [
        {
          "internalType": "bytes32",
          "name": "role",
          "type": "bytes32"
        },
        {
          "internalType": "address",
          "name": "account",
          "type": "address"
        }
      ],
      "name": "revokeRole",
      "outputs": [],
      "stateMutability": "nonpayable",
      "type": "function"
    },
    {
      "inputs": [
        {
          "internalType": "bytes4",
          "name": "interfaceId",
          "type": "bytes4"
        }
      ],
      "name": "supportsInterface",
      "outputs": [
        {
          "internalType": "bool",
          "name": "",
          "type": "bool"
        }
      ],
      "stateMutability": "view",
      "type": "function"
    },
    {
      "inputs": [],
      "name": "symbol",
      "outputs": [
        {
          "internalType": "string",
          "name": "",
          "type": "string"
        }
      ],
      "stateMutability": "view",
      "type": "function"
    },
    {
      "inputs": [],
      "name": "totalSupply",
      "outputs": [
        {
          "internalType": "uint256",
          "name": "",
          "type": "uint256"
        }
      ],
      "stateMutability": "view",
      "type": "function"
    },
    {
      "inputs": [
        {
          "internalType": "address",
          "name": "recipient",
          "type": "address"
        },
        {
          "internalType": "uint256",
          "name": "amount",
          "type": "uint256"
        }
      ],
      "name": "transfer",
      "outputs": [
        {
          "internalType": "bool",
          "name": "",
          "type": "bool"
        }
      ],
      "stateMutability": "nonpayable",
      "type": "function"
    },
    {
      "inputs": [
        {
          "internalType": "address",
          "name": "sender",
          "type": "address"
        },
        {
          "internalType": "address",
          "name": "recipient",
          "type": "address"
        },
        {
          "internalType": "uint256",
          "name": "amount",
          "type": "uint256"
        }
      ],
      "name": "transferFrom",
      "outputs": [
        {
          "internalType": "bool",
          "name": "",
          "type": "bool"
        }
      ],
      "stateMutability": "nonpayable",
      "type": "function"
    },
    {
      "inputs": [
        {
          "internalType": "address",
          "name": "newImplementation",
          "type": "address"
        }
      ],
      "name": "upgradeTo",
      "outputs": [],
      "stateMutability": "nonpayable",
      "type": "function"
    },
    {
      "inputs": [
        {
          "internalType": "address",
          "name": "newImplementation",
          "type": "address"
        },
        {
          "internalType": "bytes",
          "name": "data",
          "type": "bytes"
        }
      ],
      "name": "upgradeToAndCall",
      "outputs": [],
      "stateMutability": "payable",
      "type": "function"
    },
    {
      "inputs": [],
      "name": "version",
      "outputs": [
        {
          "internalType": "string",
          "name": "",
          "type": "string"
        }
      ],
      "stateMutability": "pure",
      "type": "function"
    }
  ],
  "bytecode": "0x60a06040523073ffffffffffffffffffffffffffffffffffffffff1660809073ffffffffffffffffffffffffffffffffffffffff1660601b8152503480156200004757600080fd5b50600060019054906101000a900460ff16806200006f575060008054906101000a900460ff16155b620000b1576040517f08c379a0000000000000000000000000000000000000000000000000000000008152600401620000a89062000152565b60405180910390fd5b60008060019054906101000a900460ff16159050801562000102576001600060016101000a81548160ff02191690831515021790555060016000806101000a81548160ff0219169083151502179055505b8015620001245760008060016101000a81548160ff0219169083151502179055505b50620001d4565b60006200013a602e8362000174565b9150620001478262000185565b604082019050919050565b600060208201905081810360008301526200016d816200012b565b9050919050565b600082825260208201905092915050565b7f496e697469616c697a61626c653a20636f6e747261637420697320616c72656160008201527f647920696e697469616c697a6564000000000000000000000000000000000000602082015250565b60805160601c613eed620002086000396000818161093a015281816109c901528181610bd60152610c650152613eed6000f3fe6080604052600436106101665760003560e01c80634f1ef286116100d1578063a457c2d71161008a578063d539139311610064578063d53913931461057b578063d547741f146105a6578063dd62ed3e146105cf578063f72c0d8b1461060c57610166565b8063a457c2d7146104d8578063a9059cbb14610515578063c4d66de81461055257610166565b80634f1ef286146103c157806354fd4d50146103dd57806370a082311461040857806391d148541461044557806395d89b4114610482578063a217fddf146104ad57610166565b80632f2ff15d116101235780632f2ff15d146102b5578063313ce567146102de57806336568abe146103095780633659cfe614610332578063395093511461035b57806340c10f191461039857610166565b806301ffc9a71461016b57806306fdde03146101a8578063095ea7b3146101d357806318160ddd1461021057806323b872dd1461023b578063248a9ca314610278575b600080fd5b34801561017757600080fd5b50610192600480360381019061018d9190612e06565b610637565b60405161019f91906131f7565b60405180910390f35b3480156101b457600080fd5b506101bd6106b1565b6040516101ca919061322d565b60405180910390f35b3480156101df57600080fd5b506101fa60048036038101906101f59190612d65565b610743565b60405161020791906131f7565b60405180910390f35b34801561021c57600080fd5b50610225610761565b604051610232919061344f565b60405180910390f35b34801561024757600080fd5b50610262600480360381019061025d9190612cc2565b61076b565b60405161026f91906131f7565b60405180910390f35b34801561028457600080fd5b5061029f600480360381019061029a9190612da1565b610863565b6040516102ac9190613212565b60405180910390f35b3480156102c157600080fd5b506102dc60048036038101906102d79190612dca565b610883565b005b3480156102ea57600080fd5b506102f36108ac565b604051610300919061346a565b60405180910390f35b34801561031557600080fd5b50610330600480360381019061032b9190612dca565b6108b5565b005b34801561033e57600080fd5b5061035960048036038101906103549190612c5d565b610938565b005b34801561036757600080fd5b50610382600480360381019061037d9190612d65565b610ae7565b60405161038f91906131f7565b60405180910390f35b3480156103a457600080fd5b506103bf60048036038101906103ba9190612d65565b610b93565b005b6103db60048036038101906103d69190612d11565b610bd4565b005b3480156103e957600080fd5b506103f2610d11565b6040516103ff919061322d565b60405180910390f35b34801561041457600080fd5b5061042f600480360381019061042a9190612c5d565b610d4e565b60405161043c919061344f565b60405180910390f35b34801561045157600080fd5b5061046c60048036038101906104679190612dca565b610d97565b60405161047991906131f7565b60405180910390f35b34801561048e57600080fd5b50610497610e02565b6040516104a4919061322d565b60405180910390f35b3480156104b957600080fd5b506104c2610e94565b6040516104cf9190613212565b60405180910390f35b3480156104e457600080fd5b506104ff60048036038101906104fa9190612d65565b610e9b565b60405161050c91906131f7565b60405180910390f35b34801561052157600080fd5b5061053c60048036038101906105379190612d65565b610f86565b60405161054991906131f7565b60405180910390f35b34801561055e57600080fd5b5061057960048036038101906105749190612c5d565b610fa4565b005b34801561058757600080fd5b5061059061118d565b60405161059d9190613212565b60405180910390f35b3480156105b257600080fd5b506105cd60048036038101906105c89190612dca565b6111b1565b005b3480156105db57600080fd5b506105f660048036038101906105f19190612c86565b6111da565b604051610603919061344f565b60405180910390f35b34801561061857600080fd5b50610621611261565b60405161062e9190613212565b60405180910390f35b60007f7965db0b000000000000000000000000000000000000000000000000000000007bffffffffffffffffffffffffffffffffffffffffffffffffffffffff1916827bffffffffffffffffffffffffffffffffffffffffffffffffffffffff191614806106aa57506106a982611285565b5b9050919050565b6060603680546106c090613830565b80601f01602080910402602001604051908101604052809291908181526020018280546106ec90613830565b80156107395780601f1061070e57610100808354040283529160200191610739565b820191906000526020600020905b81548152906001019060200180831161071c57829003601f168201915b5050505050905090565b60006107576107506112ef565b84846112f7565b6001905092915050565b6000603554905090565b60006107788484846114c2565b6000603460008673ffffffffffffffffffffffffffffffffffffffff1673ffffffffffffffffffffffffffffffffffffffff16815260200190815260200160002060006107c36112ef565b73ffffffffffffffffffffffffffffffffffffffff1673ffffffffffffffffffffffffffffffffffffffff16815260200190815260200160002054905082811015610843576040517f08c379a000000000000000000000000000000000000000000000000000000000815260040161083a9061336f565b60405180910390fd5b6108578561084f6112ef565b8584036112f7565b60019150509392505050565b600060976000838152602001908152602001600020600101549050919050565b61088c82610863565b61089d816108986112ef565b611746565b6108a783836117e3565b505050565b60006012905090565b6108bd6112ef565b73ffffffffffffffffffffffffffffffffffffffff168173ffffffffffffffffffffffffffffffffffffffff161461092a576040517f08c379a00000000000000000000000000000000000000000000000000000000081526004016109219061340f565b60405180910390fd5b61093482826118c4565b5050565b7f000000000000000000000000000000000000000000000000000000000000000073ffffffffffffffffffffffffffffffffffffffff163073ffffffffffffffffffffffffffffffffffffffff1614156109c7576040517f08c379a00000000000000000000000000000000000000000000000000000000081526004016109be906132cf565b60405180910390fd5b7f000000000000000000000000000000000000000000000000000000000000000073ffffffffffffffffffffffffffffffffffffffff16610a066119a6565b73ffffffffffffffffffffffffffffffffffffffff1614610a5c576040517f08c379a0000000000000000000000000000000000000000000000000000000008152600401610a539061330f565b60405180910390fd5b610a65816119fd565b610ae481600067ffffffffffffffff811115610aaa577f4e487b7100000000000000000000000000000000000000000000000000000000600052604160045260246000fd5b6040519080825280601f01601f191660200182016040528015610adc5781602001600182028036833780820191505090505b506000611a33565b50565b6000610b89610af46112ef565b848460346000610b026112ef565b73ffffffffffffffffffffffffffffffffffffffff1673ffffffffffffffffffffffffffffffffffffffff16815260200190815260200160002060008873ffffffffffffffffffffffffffffffffffffffff1673ffffffffffffffffffffffffffffffffffffffff16815260200190815260200160002054610b849190613518565b6112f7565b6001905092915050565b7f9f2df0fed2c77648de5860a4cc508cd0818c85b8b8a1ab4ceeef8d981c8956a6610bc581610bc06112ef565b611746565b610bcf8383611c04565b505050565b7f000000000000000000000000000000000000000000000000000000000000000073ffffffffffffffffffffffffffffffffffffffff163073ffffffffffffffffffffffffffffffffffffffff161415610c63576040517f08c379a0000000000000000000000000000000000000000000000000000000008152600401610c5a906132cf565b60405180910390fd5b7f000000000000000000000000000000000000000000000000000000000000000073ffffffffffffffffffffffffffffffffffffffff16610ca26119a6565b73ffffffffffffffffffffffffffffffffffffffff1614610cf8576040517f08c379a0000000000000000000000000000000000000000000000000000000008152600401610cef9061330f565b60405180910390fd5b610d01826119fd565b610d0d82826001611a33565b5050565b60606040518060400160405280600281526020017f7632000000000000000000000000000000000000000000000000000000000000815250905090565b6000603360008373ffffffffffffffffffffffffffffffffffffffff1673ffffffffffffffffffffffffffffffffffffffff168152602001908152602001600020549050919050565b60006097600084815260200190815260200160002060000160008373ffffffffffffffffffffffffffffffffffffffff1673ffffffffffffffffffffffffffffffffffffffff16815260200190815260200160002060009054906101000a900460ff16905092915050565b606060378054610e1190613830565b80601f0160208091040260200160405190810160405280929190818152602001828054610e3d90613830565b8015610e8a5780601f10610e5f57610100808354040283529160200191610e8a565b820191906000526020600020905b815481529060010190602001808311610e6d57829003601f168201915b5050505050905090565b6000801b81565b60008060346000610eaa6112ef565b73ffffffffffffffffffffffffffffffffffffffff1673ffffffffffffffffffffffffffffffffffffffff16815260200190815260200160002060008573ffffffffffffffffffffffffffffffffffffffff1673ffffffffffffffffffffffffffffffffffffffff16815260200190815260200160002054905082811015610f67576040517f08c379a0000000000000000000000000000000000000000000000000000000008152600401610f5e906133ef565b60405180910390fd5b610f7b610f726112ef565b858584036112f7565b600191505092915050565b6000610f9a610f936112ef565b84846114c2565b6001905092915050565b600060019054906101000a900460ff1680610fca575060008054906101000a900460ff16155b611009576040517f08c379a00000000000000000000000000000000000000000000000000000000081526004016110009061332f565b60405180910390fd5b60008060019054906101000a900460ff161590508015611059576001600060016101000a81548160ff02191690831515021790555060016000806101000a81548160ff0219169083151502179055505b6110cd6040518060400160405280600781526020017f4d79546f6b656e000000000000000000000000000000000000000000000000008152506040518060400160405280600381526020017f4d544b0000000000000000000000000000000000000000000000000000000000815250611d65565b6110d5611e52565b6110dd611f43565b611107826110e96108ac565b600a6110f591906135c1565b61271061110291906136df565b611c04565b6111146000801b8361202c565b61113e7f9f2df0fed2c77648de5860a4cc508cd0818c85b8b8a1ab4ceeef8d981c8956a68361202c565b6111687f189ab7a9244df0848122154315af71fe140f3db0fe014031783b0946b8c9d2e38361202c565b80156111895760008060016101000a81548160ff0219169083151502179055505b5050565b7f9f2df0fed2c77648de5860a4cc508cd0818c85b8b8a1ab4ceeef8d981c8956a681565b6111ba82610863565b6111cb816111c66112ef565b611746565b6111d583836118c4565b505050565b6000603460008473ffffffffffffffffffffffffffffffffffffffff1673ffffffffffffffffffffffffffffffffffffffff16815260200190815260200160002060008373ffffffffffffffffffffffffffffffffffffffff1673ffffffffffffffffffffffffffffffffffffffff16815260200190815260200160002054905092915050565b7f189ab7a9244df0848122154315af71fe140f3db0fe014031783b0946b8c9d2e381565b60007f01ffc9a7000000000000000000000000000000000000000000000000000000007bffffffffffffffffffffffffffffffffffffffffffffffffffffffff1916827bffffffffffffffffffffffffffffffffffffffffffffffffffffffff1916149050919050565b600033905090565b600073ffffffffffffffffffffffffffffffffffffffff168373ffffffffffffffffffffffffffffffffffffffff161415611367576040517f08c379a000000000000000000000000000000000000000000000000000000000815260040161135e906133cf565b60405180910390fd5b600073ffffffffffffffffffffffffffffffffffffffff168273ffffffffffffffffffffffffffffffffffffffff1614156113d7576040517f08c379a00000000000000000000000000000000000000000000000000000000081526004016113ce906132af565b60405180910390fd5b80603460008573ffffffffffffffffffffffffffffffffffffffff1673ffffffffffffffffffffffffffffffffffffffff16815260200190815260200160002060008473ffffffffffffffffffffffffffffffffffffffff1673ffffffffffffffffffffffffffffffffffffffff168152602001908152602001600020819055508173ffffffffffffffffffffffffffffffffffffffff168373ffffffffffffffffffffffffffffffffffffffff167f8c5be1e5ebec7d5bd14f71427d1e84f3dd0314c0f7b2291e5b200ac8c7c3b925836040516114b5919061344f565b60405180910390a3505050565b600073ffffffffffffffffffffffffffffffffffffffff168373ffffffffffffffffffffffffffffffffffffffff161415611532576040517f08c379a0000000000000000000000000000000000000000000000000000000008152600401611529906133af565b60405180910390fd5b600073ffffffffffffffffffffffffffffffffffffffff168273ffffffffffffffffffffffffffffffffffffffff1614156115a2576040517f08c379a00000000000000000000000000000000000000000000000000000000081526004016115999061326f565b60405180910390fd5b6115ad83838361203a565b6000603360008573ffffffffffffffffffffffffffffffffffffffff1673ffffffffffffffffffffffffffffffffffffffff16815260200190815260200160002054905081811015611634576040517f08c379a000000000000000000000000000000000000000000000000000000000815260040161162b906132ef565b60405180910390fd5b818103603360008673ffffffffffffffffffffffffffffffffffffffff1673ffffffffffffffffffffffffffffffffffffffff1681526020019081526020016000208190555081603360008573ffffffffffffffffffffffffffffffffffffffff1673ffffffffffffffffffffffffffffffffffffffff16815260200190815260200160002060008282546116c99190613518565b925050819055508273ffffffffffffffffffffffffffffffffffffffff168473ffffffffffffffffffffffffffffffffffffffff167fddf252ad1be2c89b69c2b068fc378daa952ba7f163c4a11628f55a4df523b3ef8460405161172d919061344f565b60405180910390a361174084848461203f565b50505050565b6117508282610d97565b6117df576117758173ffffffffffffffffffffffffffffffffffffffff166014612044565b6117838360001c6020612044565b6040516020016117949291906131a2565b6040516020818303038152906040526040517f08c379a00000000000000000000000000000000000000000000000000000000081526004016117d6919061322d565b60405180910390fd5b5050565b6117ed8282610d97565b6118c05760016097600084815260200190815260200160002060000160008373ffffffffffffffffffffffffffffffffffffffff1673ffffffffffffffffffffffffffffffffffffffff16815260200190815260200160002060006101000a81548160ff0219169083151502179055506118656112ef565b73ffffffffffffffffffffffffffffffffffffffff168173ffffffffffffffffffffffffffffffffffffffff16837f2f8788117e7eff1d82e926ec794901d17c78024a50270940304540a733656f0d60405160405180910390a45b5050565b6118ce8282610d97565b156119a25760006097600084815260200190815260200160002060000160008373ffffffffffffffffffffffffffffffffffffffff1673ffffffffffffffffffffffffffffffffffffffff16815260200190815260200160002060006101000a81548160ff0219169083151502179055506119476112ef565b73ffffffffffffffffffffffffffffffffffffffff168173ffffffffffffffffffffffffffffffffffffffff16837ff6391f5c32d9c69d2a47ea670b442974b53935d1edc7fd64eb21e047a839171b60405160405180910390a45b5050565b60006119d47f360894a13ba1a3210667c828492db98dca3e2076cc3735a920a3ca505d382bbc60001b61233e565b60000160009054906101000a900473ffffffffffffffffffffffffffffffffffffffff16905090565b7f189ab7a9244df0848122154315af71fe140f3db0fe014031783b0946b8c9d2e3611a2f81611a2a6112ef565b611746565b5050565b6000611a3d6119a6565b9050611a4884612348565b600083511180611a555750815b15611a6657611a648484612401565b505b6000611a947f4910fdfa16fed3260ed0e7147f7cc6da11a60208b5b9406d12a635614ffd914360001b6124e5565b90508060000160009054906101000a900460ff16611bfd5760018160000160006101000a81548160ff021916908315150217905550611b608583604051602401611ade91906131dc565b6040516020818303038152906040527f3659cfe6000000000000000000000000000000000000000000000000000000007bffffffffffffffffffffffffffffffffffffffffffffffffffffffff19166020820180517bffffffffffffffffffffffffffffffffffffffffffffffffffffffff8381831617835250505050612401565b5060008160000160006101000a81548160ff021916908315150217905550611b866119a6565b73ffffffffffffffffffffffffffffffffffffffff168273ffffffffffffffffffffffffffffffffffffffff1614611bf3576040517f08c379a0000000000000000000000000000000000000000000000000000000008152600401611bea9061328f565b60405180910390fd5b611bfc856124ef565b5b5050505050565b600073ffffffffffffffffffffffffffffffffffffffff168273ffffffffffffffffffffffffffffffffffffffff161415611c74576040517f08c379a0000000000000000000000000000000000000000000000000000000008152600401611c6b9061342f565b60405180910390fd5b611c806000838361203a565b8060356000828254611c929190613518565b9250508190555080603360008473ffffffffffffffffffffffffffffffffffffffff1673ffffffffffffffffffffffffffffffffffffffff1681526020019081526020016000206000828254611ce89190613518565b925050819055508173ffffffffffffffffffffffffffffffffffffffff16600073ffffffffffffffffffffffffffffffffffffffff167fddf252ad1be2c89b69c2b068fc378daa952ba7f163c4a11628f55a4df523b3ef83604051611d4d919061344f565b60405180910390a3611d616000838361203f565b5050565b600060019054906101000a900460ff1680611d8b575060008054906101000a900460ff16155b611dca576040517f08c379a0000000000000000000000000000000000000000000000000000000008152600401611dc19061332f565b60405180910390fd5b60008060019054906101000a900460ff161590508015611e1a576001600060016101000a81548160ff02191690831515021790555060016000806101000a81548160ff0219169083151502179055505b611e2261253e565b611e2c8383612617565b8015611e4d5760008060016101000a81548160ff0219169083151502179055505b505050565b600060019054906101000a900460ff1680611e78575060008054906101000a900460ff16155b611eb7576040517f08c379a0000000000000000000000000000000000000000000000000000000008152600401611eae9061332f565b60405180910390fd5b60008060019054906101000a900460ff161590508015611f07576001600060016101000a81548160ff02191690831515021790555060016000806101000a81548160ff0219169083151502179055505b611f0f61253e565b611f17612720565b611f1f6127f9565b8015611f405760008060016101000a81548160ff0219169083151502179055505b50565b600060019054906101000a900460ff1680611f69575060008054906101000a900460ff16155b611fa8576040517f08c379a0000000000000000000000000000000000000000000000000000000008152600401611f9f9061332f565b60405180910390fd5b60008060019054906101000a900460ff161590508015611ff8576001600060016101000a81548160ff02191690831515021790555060016000806101000a81548160ff0219169083151502179055505b6120006128d2565b6120086129ab565b80156120295760008060016101000a81548160ff0219169083151502179055505b50565b61203682826117e3565b5050565b505050565b505050565b60606000600283600261205791906136df565b6120619190613518565b67ffffffffffffffff8111156120a0577f4e487b7100000000000000000000000000000000000000000000000000000000600052604160045260246000fd5b6040519080825280601f01601f1916602001820160405280156120d25781602001600182028036833780820191505090505b5090507f300000000000000000000000000000000000000000000000000000000000000081600081518110612130577f4e487b7100000000000000000000000000000000000000000000000000000000600052603260045260246000fd5b60200101907effffffffffffffffffffffffffffffffffffffffffffffffffffffffffffff1916908160001a9053507f7800000000000000000000000000000000000000000000000000000000000000816001815181106121ba577f4e487b7100000000000000000000000000000000000000000000000000000000600052603260045260246000fd5b60200101907effffffffffffffffffffffffffffffffffffffffffffffffffffffffffffff1916908160001a905350600060018460026121fa91906136df565b6122049190613518565b90505b60018111156122f0577f3031323334353637383961626364656600000000000000000000000000000000600f86166010811061226c577f4e487b7100000000000000000000000000000000000000000000000000000000600052603260045260246000fd5b1a60f81b8282815181106122a9577f4e487b7100000000000000000000000000000000000000000000000000000000600052603260045260246000fd5b60200101907effffffffffffffffffffffffffffffffffffffffffffffffffffffffffffff1916908160001a905350600485901c9450806122e990613806565b9050612207565b5060008414612334576040517f08c379a000000000000000000000000000000000000000000000000000000000815260040161232b9061324f565b60405180910390fd5b8091505092915050565b6000819050919050565b61235181612a84565b612390576040517f08c379a00000000000000000000000000000000000000000000000000000000081526004016123879061334f565b60405180910390fd5b806123bd7f360894a13ba1a3210667c828492db98dca3e2076cc3735a920a3ca505d382bbc60001b61233e565b60000160006101000a81548173ffffffffffffffffffffffffffffffffffffffff021916908373ffffffffffffffffffffffffffffffffffffffff16021790555050565b606061240c83612a84565b61244b576040517f08c379a00000000000000000000000000000000000000000000000000000000081526004016124429061338f565b60405180910390fd5b6000808473ffffffffffffffffffffffffffffffffffffffff1684604051612473919061318b565b600060405180830381855af49150503d80600081146124ae576040519150601f19603f3d011682016040523d82523d6000602084013e6124b3565b606091505b50915091506124db8282604051806060016040528060278152602001613e9160279139612a97565b9250505092915050565b6000819050919050565b6124f881612348565b8073ffffffffffffffffffffffffffffffffffffffff167fbc7cd75a20ee27fd9adebab32041f755214dbc6bffa90cc0225b39da2e5c2d3b60405160405180910390a250565b600060019054906101000a900460ff1680612564575060008054906101000a900460ff16155b6125a3576040517f08c379a000000000000000000000000000000000000000000000000000000000815260040161259a9061332f565b60405180910390fd5b60008060019054906101000a900460ff1615905080156125f3576001600060016101000a81548160ff02191690831515021790555060016000806101000a81548160ff0219169083151502179055505b80156126145760008060016101000a81548160ff0219169083151502179055505b50565b600060019054906101000a900460ff168061263d575060008054906101000a900460ff16155b61267c576040517f08c379a00000000000000000000000000000000000000000000000000000000081526004016126739061332f565b60405180910390fd5b60008060019054906101000a900460ff1615905080156126cc576001600060016101000a81548160ff02191690831515021790555060016000806101000a81548160ff0219169083151502179055505b82603690805190602001906126e2929190612afe565b5081603790805190602001906126f9929190612afe565b50801561271b5760008060016101000a81548160ff0219169083151502179055505b505050565b600060019054906101000a900460ff1680612746575060008054906101000a900460ff16155b612785576040517f08c379a000000000000000000000000000000000000000000000000000000000815260040161277c9061332f565b60405180910390fd5b60008060019054906101000a900460ff1615905080156127d5576001600060016101000a81548160ff02191690831515021790555060016000806101000a81548160ff0219169083151502179055505b80156127f65760008060016101000a81548160ff0219169083151502179055505b50565b600060019054906101000a900460ff168061281f575060008054906101000a900460ff16155b61285e576040517f08c379a00000000000000000000000000000000000000000000000000000000081526004016128559061332f565b60405180910390fd5b60008060019054906101000a900460ff1615905080156128ae576001600060016101000a81548160ff02191690831515021790555060016000806101000a81548160ff0219169083151502179055505b80156128cf5760008060016101000a81548160ff0219169083151502179055505b50565b600060019054906101000a900460ff16806128f8575060008054906101000a900460ff16155b612937576040517f08c379a000000000000000000000000000000000000000000000000000000000815260040161292e9061332f565b60405180910390fd5b60008060019054906101000a900460ff161590508015612987576001600060016101000a81548160ff02191690831515021790555060016000806101000a81548160ff0219169083151502179055505b80156129a85760008060016101000a81548160ff0219169083151502179055505b50565b600060019054906101000a900460ff16806129d1575060008054906101000a900460ff16155b612a10576040517f08c379a0000000000000000000000000000000000000000000000000000000008152600401612a079061332f565b60405180910390fd5b60008060019054906101000a900460ff161590508015612a60576001600060016101000a81548160ff02191690831515021790555060016000806101000a81548160ff0219169083151502179055505b8015612a815760008060016101000a81548160ff0219169083151502179055505b50565b600080823b905060008111915050919050565b60608315612aa757829050612af7565b600083511115612aba5782518084602001fd5b816040517f08c379a0000000000000000000000000000000000000000000000000000000008152600401612aee919061322d565b60405180910390fd5b9392505050565b828054612b0a90613830565b90600052602060002090601f016020900481019282612b2c5760008555612b73565b82601f10612b4557805160ff1916838001178555612b73565b82800160010185558215612b73579182015b82811115612b72578251825591602001919060010190612b57565b5b509050612b809190612b84565b5090565b5b80821115612b9d576000816000905550600101612b85565b5090565b6000612bb4612baf846134aa565b613485565b905082815260208101848484011115612bcc57600080fd5b612bd78482856137c4565b509392505050565b600081359050612bee81613e34565b92915050565b600081359050612c0381613e4b565b92915050565b600081359050612c1881613e62565b92915050565b600082601f830112612c2f57600080fd5b8135612c3f848260208601612ba1565b91505092915050565b600081359050612c5781613e79565b92915050565b600060208284031215612c6f57600080fd5b6000612c7d84828501612bdf565b91505092915050565b60008060408385031215612c9957600080fd5b6000612ca785828601612bdf565b9250506020612cb885828601612bdf565b9150509250929050565b600080600060608486031215612cd757600080fd5b6000612ce586828701612bdf565b9350506020612cf686828701612bdf565b9250506040612d0786828701612c48565b9150509250925092565b60008060408385031215612d2457600080fd5b6000612d3285828601612bdf565b925050602083013567ffffffffffffffff811115612d4f57600080fd5b612d5b85828601612c1e565b9150509250929050565b60008060408385031215612d7857600080fd5b6000612d8685828601612bdf565b9250506020612d9785828601612c48565b9150509250929050565b600060208284031215612db357600080fd5b6000612dc184828501612bf4565b91505092915050565b60008060408385031215612ddd57600080fd5b6000612deb85828601612bf4565b9250506020612dfc85828601612bdf565b9150509250929050565b600060208284031215612e1857600080fd5b6000612e2684828501612c09565b91505092915050565b612e3881613739565b82525050565b612e478161374b565b82525050565b612e5681613757565b82525050565b6000612e67826134db565b612e7181856134f1565b9350612e818185602086016137d3565b80840191505092915050565b6000612e98826134e6565b612ea281856134fc565b9350612eb28185602086016137d3565b612ebb81613920565b840191505092915050565b6000612ed1826134e6565b612edb818561350d565b9350612eeb8185602086016137d3565b80840191505092915050565b6000612f046020836134fc565b9150612f0f8261393e565b602082019050919050565b6000612f276023836134fc565b9150612f3282613967565b604082019050919050565b6000612f4a602f836134fc565b9150612f55826139b6565b604082019050919050565b6000612f6d6022836134fc565b9150612f7882613a05565b604082019050919050565b6000612f90602c836134fc565b9150612f9b82613a54565b604082019050919050565b6000612fb36026836134fc565b9150612fbe82613aa3565b604082019050919050565b6000612fd6602c836134fc565b9150612fe182613af2565b604082019050919050565b6000612ff9602e836134fc565b915061300482613b41565b604082019050919050565b600061301c602d836134fc565b915061302782613b90565b604082019050919050565b600061303f6028836134fc565b915061304a82613bdf565b604082019050919050565b60006130626026836134fc565b915061306d82613c2e565b604082019050919050565b60006130856025836134fc565b915061309082613c7d565b604082019050919050565b60006130a86024836134fc565b91506130b382613ccc565b604082019050919050565b60006130cb60178361350d565b91506130d682613d1b565b601782019050919050565b60006130ee6025836134fc565b91506130f982613d44565b604082019050919050565b600061311160118361350d565b915061311c82613d93565b601182019050919050565b6000613134602f836134fc565b915061313f82613dbc565b604082019050919050565b6000613157601f836134fc565b915061316282613e0b565b602082019050919050565b613176816137ad565b82525050565b613185816137b7565b82525050565b60006131978284612e5c565b915081905092915050565b60006131ad826130be565b91506131b98285612ec6565b91506131c482613104565b91506131d08284612ec6565b91508190509392505050565b60006020820190506131f16000830184612e2f565b92915050565b600060208201905061320c6000830184612e3e565b92915050565b60006020820190506132276000830184612e4d565b92915050565b600060208201905081810360008301526132478184612e8d565b905092915050565b6000602082019050818103600083015261326881612ef7565b9050919050565b6000602082019050818103600083015261328881612f1a565b9050919050565b600060208201905081810360008301526132a881612f3d565b9050919050565b600060208201905081810360008301526132c881612f60565b9050919050565b600060208201905081810360008301526132e881612f83565b9050919050565b6000602082019050818103600083015261330881612fa6565b9050919050565b6000602082019050818103600083015261332881612fc9565b9050919050565b6000602082019050818103600083015261334881612fec565b9050919050565b600060208201905081810360008301526133688161300f565b9050919050565b6000602082019050818103600083015261338881613032565b9050919050565b600060208201905081810360008301526133a881613055565b9050919050565b600060208201905081810360008301526133c881613078565b9050919050565b600060208201905081810360008301526133e88161309b565b9050919050565b60006020820190508181036000830152613408816130e1565b9050919050565b6000602082019050818103600083015261342881613127565b9050919050565b600060208201905081810360008301526134488161314a565b9050919050565b6000602082019050613464600083018461316d565b92915050565b600060208201905061347f600083018461317c565b92915050565b600061348f6134a0565b905061349b8282613862565b919050565b6000604051905090565b600067ffffffffffffffff8211156134c5576134c46138f1565b5b6134ce82613920565b9050602081019050919050565b600081519050919050565b600081519050919050565b600081905092915050565b600082825260208201905092915050565b600081905092915050565b6000613523826137ad565b915061352e836137ad565b9250827fffffffffffffffffffffffffffffffffffffffffffffffffffffffffffffffff0382111561356357613562613893565b5b828201905092915050565b6000808291508390505b60018511156135b85780860481111561359457613593613893565b5b60018516156135a35780820291505b80810290506135b185613931565b9450613578565b94509492505050565b60006135cc826137ad565b91506135d7836137b7565b92506136047fffffffffffffffffffffffffffffffffffffffffffffffffffffffffffffffff848461360c565b905092915050565b60008261361c57600190506136d8565b8161362a57600090506136d8565b8160018114613640576002811461364a57613679565b60019150506136d8565b60ff84111561365c5761365b613893565b5b8360020a91508482111561367357613672613893565b5b506136d8565b5060208310610133831016604e8410600b84101617156136ae5782820a9050838111156136a9576136a8613893565b5b6136d8565b6136bb848484600161356e565b925090508184048111156136d2576136d1613893565b5b81810290505b9392505050565b60006136ea826137ad565b91506136f5836137ad565b9250817fffffffffffffffffffffffffffffffffffffffffffffffffffffffffffffffff048311821515161561372e5761372d613893565b5b828202905092915050565b60006137448261378d565b9050919050565b60008115159050919050565b6000819050919050565b60007fffffffff0000000000000000000000000000000000000000000000000000000082169050919050565b600073ffffffffffffffffffffffffffffffffffffffff82169050919050565b6000819050919050565b600060ff82169050919050565b82818337600083830152505050565b60005b838110156137f15780820151818401526020810190506137d6565b83811115613800576000848401525b50505050565b6000613811826137ad565b9150600082141561382557613824613893565b5b600182039050919050565b6000600282049050600182168061384857607f821691505b6020821081141561385c5761385b6138c2565b5b50919050565b61386b82613920565b810181811067ffffffffffffffff8211171561388a576138896138f1565b5b80604052505050565b7f4e487b7100000000000000000000000000000000000000000000000000000000600052601160045260246000fd5b7f4e487b7100000000000000000000000000000000000000000000000000000000600052602260045260246000fd5b7f4e487b7100000000000000000000000000000000000000000000000000000000600052604160045260246000fd5b6000601f19601f8301169050919050565b60008160011c9050919050565b7f537472696e67733a20686578206c656e67746820696e73756666696369656e74600082015250565b7f45524332303a207472616e7366657220746f20746865207a65726f206164647260008201527f6573730000000000000000000000000000000000000000000000000000000000602082015250565b7f45524331393637557067726164653a207570677261646520627265616b73206660008201527f7572746865722075706772616465730000000000000000000000000000000000602082015250565b7f45524332303a20617070726f766520746f20746865207a65726f20616464726560008201527f7373000000000000000000000000000000000000000000000000000000000000602082015250565b7f46756e6374696f6e206d7573742062652063616c6c6564207468726f7567682060008201527f64656c656761746563616c6c0000000000000000000000000000000000000000602082015250565b7f45524332303a207472616e7366657220616d6f756e742065786365656473206260008201527f616c616e63650000000000000000000000000000000000000000000000000000602082015250565b7f46756e6374696f6e206d7573742062652063616c6c6564207468726f7567682060008201527f6163746976652070726f78790000000000000000000000000000000000000000602082015250565b7f496e697469616c697a61626c653a20636f6e747261637420697320616c72656160008201527f647920696e697469616c697a6564000000000000000000000000000000000000602082015250565b7f455243313936373a206e657720696d706c656d656e746174696f6e206973206e60008201527f6f74206120636f6e747261637400000000000000000000000000000000000000602082015250565b7f45524332303a207472616e7366657220616d6f756e742065786365656473206160008201527f6c6c6f77616e6365000000000000000000000000000000000000000000000000602082015250565b7f416464726573733a2064656c65676174652063616c6c20746f206e6f6e2d636f60008201527f6e74726163740000000000000000000000000000000000000000000000000000602082015250565b7f45524332303a207472616e736665722066726f6d20746865207a65726f20616460008201527f6472657373000000000000000000000000000000000000000000000000000000602082015250565b7f45524332303a20617070726f76652066726f6d20746865207a65726f2061646460008201527f7265737300000000000000000000000000000000000000000000000000000000602082015250565b7f416363657373436f6e74726f6c3a206163636f756e7420000000000000000000600082015250565b7f45524332303a2064656372656173656420616c6c6f77616e63652062656c6f7760008201527f207a65726f000000000000000000000000000000000000000000000000000000602082015250565b7f206973206d697373696e6720726f6c6520000000000000000000000000000000600082015250565b7f416363657373436f6e74726f6c3a2063616e206f6e6c792072656e6f756e636560008201527f20726f6c657320666f722073656c660000000000000000000000000000000000602082015250565b7f45524332303a206d696e7420746f20746865207a65726f206164647265737300600082015250565b613e3d81613739565b8114613e4857600080fd5b50565b613e5481613757565b8114613e5f57600080fd5b50565b613e6b81613761565b8114613e7657600080fd5b50565b613e82816137ad565b8114613e8d57600080fd5b5056fe416464726573733a206c6f772d6c6576656c2064656c65676174652063616c6c206661696c6564a2646970667358221220c0eee90cc7c9a64758147935e8c9190bf8f68ce6b6dec598e058d357d262644b64736f6c63430008030033",
  "linkReferences": {},
  "deployedLinkReferences": {}
}